:1000000012C01FC01EC01DC01CC01BC01AC019C01A
:1000100018C017C016C015C014C013C012C011C03C
:1000200010C00FC00EC011241FBECFEDCDBF20E009
:10003000A0E6B0E001C01D92A536B207E1F72AD1D3
:10004000A8C2DECF5F9BFECF8CB108955D9BFECF33
:100050008CB9089500000895CF93DF93C82FD8E09E
:10006000C7FF0BC0C09AF6DFC19AF4DFC198CC0F6E
:10007000DA95B1F7DF91CF910895C098F4CFFF9250
:100080000F931F93CF93DF93182F062FD42FC09178
:100090006000C078F12CC19A00FF30C0C09AB89AB5
:1000A000D9DFC198D7DF0695C19A10FF29C0C09A41
:1000B000D1DFC198CFDF1695C19AB898C098C19882
:1000C000C9DFC19AF394FD16E8F486B387958827B3
:1000D0008795C695C82BC198DF11DDCF20E030E0B1
:1000E00088E090E08D1B910928173907ACF08C2F20
:1000F000DF91CF911F910F91FF900895C098CFCFBE
:10010000C098D6CF80916000B09B04C08068809377
:100110006000E1CF8F77FBCFC6952F5F3F4FE4CFD5
:10012000CF93C82F44E060E083E0A9DF45E06C2F67
:1001300080E1A5DF42E060E081E0CF91A0CFCF92E7
:10014000DF92EF92FF920F931F93CF93DF936B0198
:100150007C0143E060E081E092DF48E06C2D80E0CC
:100160008EDF182F99278F2D7E2D6D2D48E080E092
:1001700086DF082FB7018827992748E080E07FDFD6
:10018000C82F6F2D77278827992748E080E877DFE9
:10019000D82F42E060E081E072DF6C2F70E080E0F9
:1001A00090E0CB0177276627702B612B9D2BDF9189
:1001B000CF911F910F91FF90EF90DF90CF90089516
:1001C000AF92BF92CF92DF92EF92FF920F931F9365
:1001D000CF93DF93162F072FE82ED92EA12C43E0C3
:1001E00060E081E04CDF41E060E080E048DFB82E75
:1001F00048E0612F80E043DFF82E48E0602F80E088
:100200003EDFC82E48E06E2D80E039DFC82F48E081
:100210006D2D80E834DFD82F42E060E081E02FDFF1
:10022000AA9411F0B0FEDBCF6C2F70E080E090E07C
:10023000CB01772766277C296F299D2BDF91CF91F2
:100240001F910F91FF90EF90DF90CF90BF90AF90F4
:1002500008950F931F93CF93DF938B01D82FC92F4E
:100260008AE05EDF60E070EC84E090E068DF82FFAF
:10027000F9CF89E055DFB8018D2F9C2F60DF8AE030
:100280004FDF60E070EC80E090E0DF91CF911F9154
:100290000F9155CF80E886BD16BC88B911BA12BA45
:1002A00017BA18BA12B884E089B986E083B988E130
:1002B0008AB9C8DE823308F06AC1E82FF0E0E5535E
:1002C000FD4F099482E0C2DEF4CFC298BA9A86E06C
:1002D000FACFC29AFBCFBA98C298B29B0BC081E00A
:1002E000F2CFC198B99AF3CFC19AFCCFB998C1980F
:1002F000B199F5CF80E0E7CFC098B89AE8CFC09A1F
:10030000FCCFB898C098B099EACFF4CFC298BA9A07
:10031000C198B99AC098B89AC29A9CDEC2988DE4E6
:100320009BDE83E499DE88E497DE80E595DEC09865
:10033000C29ACDCFC298BA9A8DDEB998C198B898B2
:10034000C098C29ABA98C298C2CF46E060E08FE1E6
:1003500096DEBDCF77DEE4DEBACF74DEC82F43E091
:1003600060E081E08CDE48E06C2F80E888DEC82FFA
:1003700042E060E081E083DE8C2FA5CF63DEC82FF2
:1003800061DED82F5FDEF82E5DDE282F6F2D70E046
:1003900080E090E0CB01772766277D2B6C2B922B9A
:1003A000CEDED82F862FF72EC92F50DE8F2D4EDEB2
:1003B0008D2F4CDEE1CF46DEC82F44DED82F42DE43
:1003C000F82E40DE282F6F2D70E080E090E0CB010A
:1003D000772766277D2B6C2B922BF2DEE2CF32DE65
:1003E000C82F30DED82F2EDEF82E2CDE282F6F2DD2
:1003F00070E080E090E0CB01772766277D2B6C2BA7
:10040000922B27DF64CF1EDEC82F1CDED82F1ADE0A
:10041000F82E18DE4F2D50E060E070E0BA0155274D
:1004200044275D2B4C2B782B409361005093620046
:1004300060936300709364004ACF60E27FEF88E0CE
:100440009CE307DF60E072E088E095E302DF68E0AC
:1004500070E080E091E0FDDE60E070E0CB01F9DE6D
:1004600086E0F4DD60E27FEF83E19CE3F2DE609101
:100470006100709162008091630090916400BC0102
:100480008827992788609C63E4DE60916100709101
:1004900062008091630090916400882799278860AA
:1004A0009563D7DE8091610090916200A091630016
:1004B000B09164000496A11DB11D809361009093DA
:1004C0006200A0936300B093640060E070E089E094
:1004D0009DE8BFDE60E070E089E69EEABADE60E09B
:1004E00070E0CB01B6DE8EE01BDE60E070E0CB0199
:1004F00074CFA8DDC82FA6DDD82FA4DDC82EA2DDBD
:10050000D12CE12CF12C7601DD24CC24DD2ACC2A5F
:10051000F82A60916100709162008091630090916F
:100520006400BC018827992780619C6392DEC70123
:10053000AA27BB27BC01CD0188609C638ADEEE241C
:10054000FF24C701B6018860956383DE6091610076
:1005500070916200809163009091640088279927D0
:1005600088609E6A76DE8091610090916200A09121
:100570006300B09164000496A11DB11D80936100D9
:1005800090936200A0936300B0936400A0CE85E1D5
:100590009ACEF894FFCF9BCE95CEF9CFF8CFF7CF78
:1005A000F6CFF5CFF4CFF3CFF2CFF1CFF0CFEFCF3F
:1005B000EECFEDCFECCFA0CEA2CEA3CEE8CF91CEA2
:1005C00093CE94CEE4CF81CE84CE85CEE0CFDFCF64
:1005D000DECFDDCFDCCF9ACEADCED9CFD8CFD7CF3F
:1005E000D6CFD5CFD4CFB1CEB5CEB7CEC7CEE3CE52
:0A05F000F6CE09CF37CF7DCF20CF24
:00000001FF
