:1000000012C01FC01EC01DC01CC01BC01AC019C01A
:1000100018C017C016C015C014C013C012C011C03C
:1000200010C00FC00EC011241FBECFEDCDBF20E009
:10003000A0E6B0E001C01D92A536B207E1F740D1BD
:10004000B8C2DECF5F9BFECF8CB108955D9BFECF23
:100050008CB90895C29A0895C2980895BA9A0895DD
:10006000BA98C2980895C19A0895C1980895B99808
:10007000C1980895C09A0895C0980895B89A0895AF
:10008000B898C0980895CF93DF93C82FD8E0C7FFE2
:100090000BC0F0DF0000E7DF0000E7DFCC0FDA95F0
:1000A000B1F7DF91CF910895E7DFF4CFFF920F937F
:1000B0001F93CF93DF93182F062FD42FC09160008A
:1000C000C078F12CD0DF00FF2FC0D4DFD7DF0000D5
:1000D000CCDF00000695C7DF10FF28C0CBDF000093
:1000E000C4DF00001695BFDFCBDFBFDF0000BBDF42
:1000F000F394FD16E8F486B3879588278795C6950F
:10010000C82BB3DFDF11DECF20E030E088E090E0E5
:100110008D1B910928173907ACF08C2FDF91CF91F7
:100120001F910F91FF900895A7DFD0CFA5DFD7CF04
:1001300080916000B09B04C0806880936000E1CF34
:100140008F77FBCFC6952F5F3F4FE4CFCF93C82F5C
:1001500044E060E083E0AADF45E06C2F80E1A6DFA9
:1001600042E060E081E0CF91A1CFCF92DF92EF92A9
:10017000FF920F931F93CF93DF936B017C0143E0BA
:1001800060E081E093DF48E06C2D80E08FDF182F86
:1001900099278F2D7E2D6D2D48E080E087DF082F79
:1001A000B7018827992748E080E080DFC82F6F2DAE
:1001B00077278827992748E080E878DFD82F42E022
:1001C00060E081E073DF6C2F70E080E090E0CB01B5
:1001D00077276627702B612B9D2BDF91CF911F9185
:1001E0000F91FF90EF90DF90CF900895AF92BF9264
:1001F000CF92DF92EF92FF920F931F93CF93DF93F3
:10020000162F072FE82ED92EA12C43E060E081E0C5
:100210004DDF41E060E080E049DFB82E48E0612F2B
:1002200080E044DFF82E48E0602F80E03FDFC82EFA
:1002300048E06E2D80E03ADFC82F48E06D2D80E861
:1002400035DFD82F42E060E081E030DFAA9411F082
:10025000B0FEDBCF6C2F70E080E090E0CB01772721
:1002600066277C296F299D2BDF91CF911F910F91DC
:10027000FF90EF90DF90CF90BF90AF9008950F93D5
:100280001F93CF93DF938B01D82FC92F8AE05EDFB6
:1002900060E070EC84E090E068DF82FFF9CF89E0F5
:1002A00055DFB8018D2F9C2F60DF8AE04FDF60E0C3
:1002B00070EC80E090E0DF91CF911F910F9155CFCE
:1002C00080E886BD16BC88B911BA12BA17BA18BA36
:1002D00012B884E089B986E083B988E18AB9B2DED0
:1002E000823308F064C1E82FF0E0E552FD4F099435
:1002F00082E0ACDEF4CFB0DEB1DE86E0FACFAADE7B
:10030000FBCFAEDEB29B0AC081E0F3CFAEDEB99A7E
:10031000F4CFA9DEFCCFABDEB199F6CF80E0E9CF18
:10032000ABDEACDEEACFA6DEFCCFAADEB099ECCF26
:10033000F5CF92DE93DE99DEB99A9EDE9FDE8ADEED
:1003400000008ADE8DE49FDE83E49DDE88E49BDE90
:1003500080E599DE91DE7EDED0CF7EDE7FDE00009E
:1003600086DE8EDE77DE7CDEC8CF46E060E08FE1A1
:100370009DDEC3CF67DEEADEC0CF64DEC82F43E078
:1003800060E081E093DE48E06C2F80E88FDEC82FCC
:1003900042E060E081E08ADE8C2FABCF53DEC82FD5
:1003A00051DED82F4FDEF82E4DDE282F6F2D70E056
:1003B00080E090E0CB01772766277D2B6C2B922B7A
:1003C000D4DED82F862FF72EC92F40DE8F2D3EDEAC
:1003D0008D2F3CDEE1CF36DEC82F34DED82F32DE63
:1003E000F82E30DE282F6F2D70E080E090E0CB01FA
:1003F000772766277D2B6C2B922BF8DEE2CF22DE4F
:10040000C82F20DED82F1EDEF82E1CDE282F6F2DE1
:1004100070E080E090E0CB01772766277D2B6C2B86
:10042000922B2DDF6ACF0EDEC82F0CDED82F0ADE0E
:10043000F82E08DE4F2D50E060E070E0BA0155273D
:1004400044275D2B4C2B782B409361005093620026
:10045000609363007093640050CF60E27FEF88E0A8
:100460009CE30DDF60E072E088E095E308DF68E080
:1004700070E080E091E003DF60E070E0CB01FFDE40
:1004800086E0E4DD60E27FEF83E19CE3F8DE6091EB
:100490006100709162008091630090916400BC01E2
:1004A0008827992788609C63EADE609161007091DB
:1004B000620080916300909164008827992788608A
:1004C0009563DDDE8091610090916200A0916300F0
:1004D000B09164000496A11DB11D809361009093BA
:1004E0006200A0936300B093640060E070E089E074
:1004F0009DE8C5DE60E070E089E69EEAC0DE60E06F
:1005000070E0CB01BCDE8EE021DE60E070E0CB016C
:1005100074CF98DDC82F96DDD82F94DDC82E92DDDC
:10052000D12CE12CF12C7601DD24CC24DD2ACC2A3F
:10053000F82A60916100709162008091630090914F
:100540006400BC018827992780619C6398DEC701FD
:10055000AA27BB27BC01CD0188609C6390DEEE24F6
:10056000FF24C701B6018860956389DE6091610050
:1005700070916200809163009091640088279927B0
:1005800088609E6A7CDE8091610090916200A091FB
:100590006300B09164000496A11DB11D80936100B9
:1005A00090936200A0936300B0936400A6CE85E1AF
:1005B000A0CEF894FFCFA1CE9BCEF9CFF8CFF7CF46
:1005C000F6CFF5CFF4CFF3CFF2CFF1CFF0CFEFCF1F
:1005D000EECFEDCFECCFA4CEA6CEA7CEE8CF96CE71
:1005E00098CE99CEE4CF87CE8ACE8BCEE0CFDFCF28
:1005F000DECFDDCFDCCF9DCEB0CED9CFD8CFD7CF19
:10060000D6CFD5CFD4CFB1CEB5CEB7CEC7CEE3CE31
:0A061000F6CE09CF37CF7DCF20CF03
:00000001FF
