:1000000012C01FC01EC01DC01CC01BC01AC019C01A
:1000100018C017C016C015C014C013C012C011C03C
:1000200010C00FC00EC011241FBECFEDCDBF20E009
:10003000A0E6B0E001C01D92A536B207E1F769D194
:100040000BC3DECF5F9BFECF8CB108955D9BFECFCF
:100050008CB90895C29A0895C2980895BA9A0895DD
:10006000BA98C2980895C19A0895C1980895B99808
:10007000C1980895C09A0895C0980895B89A0895AF
:10008000B898C0980895000000000000000008958E
:10009000CF93DF93C82FD8E0C7FF0CC0EBDFF3DFAF
:1000A000E2DFF1DFE2DFCC0FD150D111F5CFDF91EC
:1000B000CF910895E1DFF3CFFF920F931F93CF937A
:1000C000DF93182F062FD42FC0916000C078F12C39
:1000D000CADF00FF1BC0CEDFD1DFD5DFC6DFD3DF35
:1000E0000695C1DF10FF14C0C5DFCDDFBEDFCBDF5B
:1000F0001695B9DFC5DFB9DFC6DFB5DFF394FD16AE
:10010000A0F4C695B09906C0B0DFE2CFB5DFE4CF6A
:10011000B3DFEBCFC068A9DFDF11DACF20E030E03A
:1001200088E090E08D1B91090DC080916000B09B2C
:1001300004C0806880936000EECF8F77FBCFC695B8
:100140002F5F3F4F28173907D4F38C2FDF91CF91C2
:100150001F910F91FF900895CF93C82F44E060E066
:1001600083E0AADF45E06C2F80E1A6DF42E060E09B
:1001700081E0CF91A1CFCF92DF92EF92FF920F93C8
:100180001F93CF93DF93CDB7DD27C550CDBF6B0154
:100190007C0143E060E081E08FDF48E06C2D80E08F
:1001A0008BDF182F99278F2D7E2D6D2D48E080E055
:1001B00083DF082FB7018827992748E080E07CDF9C
:1001C00089836F2D77278827992748E080E874DF97
:1001D0008D8342E060E081E06FDF2981422F50E0B3
:1001E00060E070E0BA0155274427502B412BDB011A
:1001F000CA012D81B22BBC01CD01CB5FCDBFDF91F8
:10020000CF911F910F91FF90EF90DF90CF900895C5
:10021000AF92BF92CF92DF92EF92FF920F931F9314
:10022000CF93DF93CDB7DD27C550CDBF162F072F56
:10023000E82ED92EA12C43E060E081E03DDF41E0D3
:1002400060E080E039DFB82E48E0612F80E034DFE5
:10025000F82E48E0602F80E02FDFC82E48E06E2D9A
:1002600080E02ADF898348E06D2D80E825DF8D83DB
:1002700042E060E081E020DFAA94AA2011F0B0FE05
:10028000DACF2981422F50E060E070E0BA015527B3
:1002900044275C294F29DB01CA012D81B22BBC0107
:1002A000CD01CB5FCDBFDF91CF911F910F91FF901B
:1002B000EF90DF90CF90BF90AF9008950F931F9372
:1002C000CF93DF93CDB7DD27C650CDBF8B018E8393
:1002D0009D838AE041DF60E070EC84E090E04BDFDA
:1002E00069837A838B839C8382FFF5CF89E034DF37
:1002F000B8018E819D813FDF8AE02EDF60E070ECE7
:1003000080E090E0CA5FCDBFDF91CF911F910F9148
:1003100032CFCDB7DD27C550CDBF80E886BD16BC36
:1003200088B911BA12BA17BA18BA12B88CE089B9DA
:1003300086E083B988E18AB985DE813308F08AC115
:10034000E82FF0E0E25DFC4F099482E07FDEF4CF1D
:1003500083DE84DE86E0FACF7DDEFBCF81DEB29BDA
:100360000AC081E0F3CF81DEB99AF4CF7CDEFCCF06
:100370007EDEB199F6CF80E0E9CF7EDE7FDEEACF88
:1003800079DEFCCF7DDEB099ECCFF5CF65DE66DEA1
:100390006CDEB99A71DE72DE5DDE75DE5DDE8DE4E7
:1003A00077DE83E475DE88E473DE80E571DE64DE8B
:1003B00051DED0CF51DE52DE66DE59DE61DE4ADE2E
:1003C0004FDEC8CF46E060E08FE176DEC3CF3ADE95
:1003D000C3DEC0CF37DE898343E060E081E06CDEBE
:1003E00048E0698180E868DE898342E060E081E07E
:1003F00063DE8981ABCF26DE898324DE8D8322DE16
:10040000F82E20DE4F2D50E060E070E0BA01552755
:1004100044270D81502B1981412B8A019B01382BD8
:1004200009831A832B833C83C901B801A4DE8D8321
:10043000862FF72E99830ADE8F2D08DE8D8106DE4A
:10044000D8CF00DE8983FEDD8D83FCDDF82EFADD5A
:100450004F2D50E060E070E0BA01552744271D8120
:10046000512B0981402B8A019B01382B09831A8368
:100470002B833C83C901B801CBDED9CFE3DD89836F
:10048000E1DD8D83DFDDF82EDDDD4F2D50E060E016
:1004900070E0BA01552744271D81512B0981402B5B
:1004A0008A019B01382B09831A832B833C83C90162
:1004B000B80104DF4FCFC6DD8983C4DD8D83C2DD83
:1004C000F82EC0DD4F2D50E060E070E0BA015527F6
:1004D00044271D81512B0981402B782B40936100CB
:1004E00050936200609363007093640033CF60E2C6
:1004F0007FEF83E19CE3E2DE8091610090916200F6
:10050000A0916300B0916400CD01AA27BB279C0194
:10051000AD0148605C63CA01B901D0DE8091610021
:1005200090916200A0916300B0916400AA27BB275C
:100530008C019D012860356309831A832B833C83DA
:10054000C901B801BBDE8091610090916200A09169
:100550006300B09164000496A11DB11D80936100F9
:1005600090936200A0936300B093640060E070E039
:1005700089E09DE8A3DE60E070E089E69EEA9EDE09
:1005800060E070E0CB019ADE8EE0E6DD60E070E0D6
:10059000CB0172CF57DD898355DD8D8353DDC82EA6
:1005A00051DDD12CE12CF12C7601DD24CC241D81F0
:1005B000D12A0981C02AF82A8091610090916200B5
:1005C000A0916300B0916400CD01AA27BB279C01D4
:1005D000AD0140615C63CA01B90170DEC701AA27A1
:1005E000BB278C019D0128603C63C901B80166DE10
:1005F000EE24FF24A701960148605563CA01B901A2
:100600005DDE8091610090916200A0916300B091E5
:100610006400AA27BB278C019D0128603E6A0983DC
:100620001A832B833C83C901B80148DE80916100A5
:1006300090916200A0916300B09164000496A11DA6
:10064000B11D8093610090936200A0936300B0930A
:10065000640080CE85E17ACEF894FFCF7BCE75CE54
:10066000F9CFF8CFF7CFF6CFF5CFF4CFF3CFF2CF66
:10067000F1CFF0CFEFCFEECFEDCFECCF7ECE80CE6F
:1006800081CEE8CF70CE72CE73CEE4CF61CE64CE91
:1006900065CEE0CFDFCFDECFDDCFDCCF77CE8ACE29
:1006A000D9CFD8CFD7CFD6CFD5CFD4CF8BCE8FCEB3
:0E06B00091CEA1CEC6CEE2CEFECE19CF6BCF3C
:00000001FF
